{
  "abi": [
    {
      "type": "constructor",
      "inputs": [],
      "stateMutability": "nonpayable"
    },
    {
      "type": "function",
      "name": "claimPrize",
      "inputs": [
        {
          "name": "competitionId",
          "type": "uint256",
          "internalType": "uint256"
        },
        {
          "name": "winnerAddress",
          "type": "address",
          "internalType": "address"
        }
      ],
      "outputs": [],
      "stateMutability": "nonpayable"
    },
    {
      "type": "function",
      "name": "competitionCount",
      "inputs": [],
      "outputs": [
        {
          "name": "",
          "type": "uint256",
          "internalType": "uint256"
        }
      ],
      "stateMutability": "view"
    },
    {
      "type": "function",
      "name": "competitions",
      "inputs": [
        {
          "name": "",
          "type": "uint256",
          "internalType": "uint256"
        }
      ],
      "outputs": [
        {
          "name": "name",
          "type": "string",
          "internalType": "string"
        },
        {
          "name": "bannerImageUrl",
          "type": "string",
          "internalType": "string"
        },
        {
          "name": "startTime",
          "type": "uint256",
          "internalType": "uint256"
        },
        {
          "name": "endTime",
          "type": "uint256",
          "internalType": "uint256"
        },
        {
          "name": "entryFeeUSD",
          "type": "uint256",
          "internalType": "uint256"
        },
        {
          "name": "totalBalance",
          "type": "uint256",
          "internalType": "uint256"
        }
      ],
      "stateMutability": "view"
    },
    {
      "type": "function",
      "name": "createCompetition",
      "inputs": [
        {
          "name": "competitionId",
          "type": "uint256",
          "internalType": "uint256"
        },
        {
          "name": "name",
          "type": "string",
          "internalType": "string"
        },
        {
          "name": "bannerImageUrl",
          "type": "string",
          "internalType": "string"
        },
        {
          "name": "startTime",
          "type": "uint256",
          "internalType": "uint256"
        },
        {
          "name": "endTime",
          "type": "uint256",
          "internalType": "uint256"
        },
        {
          "name": "entryFeeUSD",
          "type": "uint256",
          "internalType": "uint256"
        }
      ],
      "outputs": [],
      "stateMutability": "nonpayable"
    },
    {
      "type": "function",
      "name": "getCompetition",
      "inputs": [
        {
          "name": "competitionId",
          "type": "uint256",
          "internalType": "uint256"
        }
      ],
      "outputs": [
        {
          "name": "",
          "type": "tuple",
          "internalType": "struct Competition",
          "components": [
            {
              "name": "name",
              "type": "string",
              "internalType": "string"
            },
            {
              "name": "bannerImageUrl",
              "type": "string",
              "internalType": "string"
            },
            {
              "name": "playerAddresses",
              "type": "address[]",
              "internalType": "address[]"
            },
            {
              "name": "startTime",
              "type": "uint256",
              "internalType": "uint256"
            },
            {
              "name": "endTime",
              "type": "uint256",
              "internalType": "uint256"
            },
            {
              "name": "entryFeeUSD",
              "type": "uint256",
              "internalType": "uint256"
            },
            {
              "name": "totalBalance",
              "type": "uint256",
              "internalType": "uint256"
            }
          ]
        },
        {
          "name": "",
          "type": "address[]",
          "internalType": "address[]"
        }
      ],
      "stateMutability": "view"
    },
    {
      "type": "function",
      "name": "getCompetitions",
      "inputs": [],
      "outputs": [
        {
          "name": "",
          "type": "tuple[]",
          "internalType": "struct Competition[]",
          "components": [
            {
              "name": "name",
              "type": "string",
              "internalType": "string"
            },
            {
              "name": "bannerImageUrl",
              "type": "string",
              "internalType": "string"
            },
            {
              "name": "playerAddresses",
              "type": "address[]",
              "internalType": "address[]"
            },
            {
              "name": "startTime",
              "type": "uint256",
              "internalType": "uint256"
            },
            {
              "name": "endTime",
              "type": "uint256",
              "internalType": "uint256"
            },
            {
              "name": "entryFeeUSD",
              "type": "uint256",
              "internalType": "uint256"
            },
            {
              "name": "totalBalance",
              "type": "uint256",
              "internalType": "uint256"
            }
          ]
        }
      ],
      "stateMutability": "view"
    },
    {
      "type": "function",
      "name": "hasJoined",
      "inputs": [
        {
          "name": "",
          "type": "uint256",
          "internalType": "uint256"
        },
        {
          "name": "",
          "type": "address",
          "internalType": "address"
        }
      ],
      "outputs": [
        {
          "name": "",
          "type": "bool",
          "internalType": "bool"
        }
      ],
      "stateMutability": "view"
    },
    {
      "type": "function",
      "name": "joinCompetition",
      "inputs": [
        {
          "name": "competitionId",
          "type": "uint256",
          "internalType": "uint256"
        },
        {
          "name": "playerName",
          "type": "string",
          "internalType": "string"
        }
      ],
      "outputs": [],
      "stateMutability": "nonpayable"
    },
    {
      "type": "function",
      "name": "owner",
      "inputs": [],
      "outputs": [
        {
          "name": "",
          "type": "address",
          "internalType": "address"
        }
      ],
      "stateMutability": "view"
    },
    {
      "type": "function",
      "name": "usdcToken",
      "inputs": [],
      "outputs": [
        {
          "name": "",
          "type": "address",
          "internalType": "contract IERC20"
        }
      ],
      "stateMutability": "view"
    },
    {
      "type": "event",
      "name": "CompetitionCreated",
      "inputs": [
        {
          "name": "competitionId",
          "type": "uint256",
          "indexed": true,
          "internalType": "uint256"
        },
        {
          "name": "startTime",
          "type": "uint256",
          "indexed": false,
          "internalType": "uint256"
        },
        {
          "name": "endTime",
          "type": "uint256",
          "indexed": false,
          "internalType": "uint256"
        },
        {
          "name": "entryFeeUSD",
          "type": "uint256",
          "indexed": false,
          "internalType": "uint256"
        }
      ],
      "anonymous": false
    },
    {
      "type": "event",
      "name": "PlayerJoined",
      "inputs": [
        {
          "name": "competitionId",
          "type": "uint256",
          "indexed": true,
          "internalType": "uint256"
        },
        {
          "name": "playerAddress",
          "type": "address",
          "indexed": true,
          "internalType": "address"
        },
        {
          "name": "playerName",
          "type": "string",
          "indexed": false,
          "internalType": "string"
        }
      ],
      "anonymous": false
    },
    {
      "type": "event",
      "name": "PrizeClaimed",
      "inputs": [
        {
          "name": "competitionId",
          "type": "uint256",
          "indexed": true,
          "internalType": "uint256"
        },
        {
          "name": "winnerAddress",
          "type": "address",
          "indexed": true,
          "internalType": "address"
        },
        {
          "name": "prizeAmount",
          "type": "uint256",
          "indexed": false,
          "internalType": "uint256"
        }
      ],
      "anonymous": false
    },
    {
      "type": "error",
      "name": "AlreadyJoined",
      "inputs": []
    },
    {
      "type": "error",
      "name": "CompetitionNotActive",
      "inputs": []
    },
    {
      "type": "error",
      "name": "InvalidCompetition",
      "inputs": []
    },
    {
      "type": "error",
      "name": "OnlyOwner",
      "inputs": []
    }
  ],
  "bytecode": {
    "object": "0x6080604052348015600e575f80fd5b505f80546001600160a01b031990811633179091556001805490911673833589fcd6edb6e08f4c7c32d4f71b54bda029131790556110cb8061004f5f395ff3fe608060405234801561000f575f80fd5b506004361061009b575f3560e01c80639f6828d9116100635780639f6828d9146101465780639f6c0ce31461016b578063a168177014610180578063ccde142114610197578063f4036466146101aa575f80fd5b806311eac8551461009f57806343b49094146100cf578063521e75e1146100e457806368194719146100f75780638da5cb5b14610134575b5f80fd5b6001546100b2906001600160a01b031681565b6040516001600160a01b0390911681526020015b60405180910390f35b6100e26100dd366004610b7c565b6101cb565b005b6100e26100f2366004610bff565b61026f565b610124610105366004610bff565b600460209081525f928352604080842090915290825290205460ff1681565b60405190151581526020016100c6565b5f546100b2906001600160a01b031681565b610159610154366004610c38565b610372565b6040516100c696959493929190610c7d565b6101736104b1565b6040516100c69190610d75565b61018960025481565b6040519081526020016100c6565b6100e26101a5366004610dd7565b610735565b6101bd6101b8366004610c38565b6108cb565b6040516100c6929190610e4c565b5f868152600360205260409020806101e38782610f28565b50600181016101f28682610f28565b506003810184905560048101839055600581018290555f60068201819055600280549161021e83610ffc565b9091555050604080518581526020810185905290810183905287907f8ebbd2d736e5886e239720c0230f8c2411fc3e86dea4d799c4222407fb7928209060600160405180910390a250505050505050565b5f546001600160a01b0316331461029957604051635fc483c560e01b815260040160405180910390fd5b5f82815260036020526040808220600681018054939055600154915163a9059cbb60e01b81526001600160a01b03858116600483015260248201859052919392919091169063a9059cbb906044016020604051808303815f875af1158015610303573d5f803e3d5ffd5b505050506040513d601f19601f820116820180604052508101906103279190611014565b50826001600160a01b0316847f4aa95f981a8337cb337de335b965507da0879c3b49f799d20058e913f5ad2c268360405161036491815260200190565b60405180910390a350505050565b60036020525f908152604090208054819061038c90610eaa565b80601f01602080910402602001604051908101604052809291908181526020018280546103b890610eaa565b80156104035780601f106103da57610100808354040283529160200191610403565b820191905f5260205f20905b8154815290600101906020018083116103e657829003601f168201915b50505050509080600101805461041890610eaa565b80601f016020809104026020016040519081016040528092919081815260200182805461044490610eaa565b801561048f5780601f106104665761010080835404028352916020019161048f565b820191905f5260205f20905b81548152906001019060200180831161047257829003601f168201915b5050505050908060030154908060040154908060050154908060060154905086565b60605f60025467ffffffffffffffff8111156104cf576104cf610adf565b60405190808252806020026020018201604052801561053c57816020015b6105296040518060e001604052806060815260200160608152602001606081526020015f81526020015f81526020015f81526020015f81525090565b8152602001906001900390816104ed5790505b5090505f5b60025481101561072f575f8181526003602052604090819020815160e0810190925280548290829061057290610eaa565b80601f016020809104026020016040519081016040528092919081815260200182805461059e90610eaa565b80156105e95780601f106105c0576101008083540402835291602001916105e9565b820191905f5260205f20905b8154815290600101906020018083116105cc57829003601f168201915b5050505050815260200160018201805461060290610eaa565b80601f016020809104026020016040519081016040528092919081815260200182805461062e90610eaa565b80156106795780601f1061065057610100808354040283529160200191610679565b820191905f5260205f20905b81548152906001019060200180831161065c57829003601f168201915b50505050508152602001600282018054806020026020016040519081016040528092919081815260200182805480156106d957602002820191905f5260205f20905b81546001600160a01b031681526001909101906020018083116106bb575b5050505050815260200160038201548152602001600482015481526020016005820154815260200160068201548152505082828151811061071c5761071c61103a565b6020908102919091010152600101610541565b50919050565b5f838152600360208190526040909120908101544210806107595750806004015442115b1561077757604051630382d08960e51b815260040160405180910390fd5b5f84815260046020908152604080832033845290915290205460ff16156107b057604051621d934160e11b815260040160405180910390fd5b60015460058201546040516323b872dd60e01b815233600482015230602482015260448101919091526001600160a01b03909116906323b872dd906064016020604051808303815f875af115801561080a573d5f803e3d5ffd5b505050506040513d601f19601f8201168201806040525081019061082e9190611014565b506002810180546001810182555f918252602082200180546001600160a01b0319163317905560058201546006830180549192909161086e90849061104e565b90915550505f84815260046020908152604080832033808552925291829020805460ff19166001179055905185907fa259bab503f65f6ae62d4f6a412b41b967799a284f69f21ba61362cf04e5eafa906103649087908790611067565b6109076040518060e001604052806060815260200160608152602001606081526020015f81526020015f81526020015f81526020015f81525090565b60605f60035f8581526020019081526020015f206040518060e00160405290815f8201805461093590610eaa565b80601f016020809104026020016040519081016040528092919081815260200182805461096190610eaa565b80156109ac5780601f10610983576101008083540402835291602001916109ac565b820191905f5260205f20905b81548152906001019060200180831161098f57829003601f168201915b505050505081526020016001820180546109c590610eaa565b80601f01602080910402602001604051908101604052809291908181526020018280546109f190610eaa565b8015610a3c5780601f10610a1357610100808354040283529160200191610a3c565b820191905f5260205f20905b815481529060010190602001808311610a1f57829003601f168201915b5050505050815260200160028201805480602002602001604051908101604052809291908181526020018280548015610a9c57602002820191905f5260205f20905b81546001600160a01b03168152600190910190602001808311610a7e575b5050505050815260200160038201548152602001600482015481526020016005820154815260200160068201548152505090508081604001519250925050915091565b634e487b7160e01b5f52604160045260245ffd5b5f82601f830112610b02575f80fd5b813567ffffffffffffffff80821115610b1d57610b1d610adf565b604051601f8301601f19908116603f01168101908282118183101715610b4557610b45610adf565b81604052838152866020858801011115610b5d575f80fd5b836020870160208301375f602085830101528094505050505092915050565b5f805f805f8060c08789031215610b91575f80fd5b86359550602087013567ffffffffffffffff80821115610baf575f80fd5b610bbb8a838b01610af3565b96506040890135915080821115610bd0575f80fd5b50610bdd89828a01610af3565b945050606087013592506080870135915060a087013590509295509295509295565b5f8060408385031215610c10575f80fd5b8235915060208301356001600160a01b0381168114610c2d575f80fd5b809150509250929050565b5f60208284031215610c48575f80fd5b5035919050565b5f81518084528060208401602086015e5f602082860101526020601f19601f83011685010191505092915050565b60c081525f610c8f60c0830189610c4f565b8281036020840152610ca18189610c4f565b9150508560408301528460608301528360808301528260a0830152979650505050505050565b5f815160e08452610cdb60e0850182610c4f565b905060208084015185830382870152610cf48382610c4f565b60408681015188830391890191909152805180835290840194505f9250908301905b80831015610d3f5784516001600160a01b03168252938301936001929092019190830190610d16565b50606086015160608801526080860151608088015260a086015160a088015260c086015160c08801528094505050505092915050565b5f60208083016020845280855180835260408601915060408160051b8701019250602087015f5b82811015610dca57603f19888603018452610db8858351610cc7565b94509285019290850190600101610d9c565b5092979650505050505050565b5f805f60408486031215610de9575f80fd5b83359250602084013567ffffffffffffffff80821115610e07575f80fd5b818601915086601f830112610e1a575f80fd5b813581811115610e28575f80fd5b876020828501011115610e39575f80fd5b6020830194508093505050509250925092565b604081525f610e5e6040830185610cc7565b8281036020848101919091528451808352858201928201905f5b81811015610e9d5784516001600160a01b031683529383019391830191600101610e78565b5090979650505050505050565b600181811c90821680610ebe57607f821691505b60208210810361072f57634e487b7160e01b5f52602260045260245ffd5b601f821115610f2357805f5260205f20601f840160051c81016020851015610f015750805b601f840160051c820191505b81811015610f20575f8155600101610f0d565b50505b505050565b815167ffffffffffffffff811115610f4257610f42610adf565b610f5681610f508454610eaa565b84610edc565b602080601f831160018114610f89575f8415610f725750858301515b5f19600386901b1c1916600185901b178555610fe0565b5f85815260208120601f198616915b82811015610fb757888601518255948401946001909101908401610f98565b5085821015610fd457878501515f19600388901b60f8161c191681555b505060018460011b0185555b505050505050565b634e487b7160e01b5f52601160045260245ffd5b5f6001820161100d5761100d610fe8565b5060010190565b5f60208284031215611024575f80fd5b81518015158114611033575f80fd5b9392505050565b634e487b7160e01b5f52603260045260245ffd5b8082018082111561106157611061610fe8565b92915050565b60208152816020820152818360408301375f818301604090810191909152601f909201601f1916010191905056fea2646970667358221220b9d2e0318eab730633faf8c8019a73aebe4ced899e764fcfa352281b3201222264736f6c63430008190033",
    "linkReferences": {}
  },
  "methodIdentifiers": {
    "claimPrize(uint256,address)": "521e75e1",
    "competitionCount()": "a1681770",
    "competitions(uint256)": "9f6828d9",
    "createCompetition(uint256,string,string,uint256,uint256,uint256)": "43b49094",
    "getCompetition(uint256)": "f4036466",
    "getCompetitions()": "9f6c0ce3",
    "hasJoined(uint256,address)": "68194719",
    "joinCompetition(uint256,string)": "ccde1421",
    "owner()": "8da5cb5b",
    "usdcToken()": "11eac855"
  },
  "id": 21
}